:020000040001F9
:10400000A0380020014201001342010015420100C6
:1040100000000000000000000000000000000000A0
:104020000000000000000000000000001742010036
:104030000000000000000000194201001B420100C6
:104040001D4201001D4201001D4201001D420100F0
:104050001D42010000000000FD8601001D4201001C
:104060001D4201001D4201001D4201001D420100D0
:104070001D4201001D4201001D4201001D420100C0
:104080001D420100BB7B01001D4201001D420100D9
:10409000DD7B01001D4201004F8301001D42010034
:1040A0001D4201001D420100000000000000000050
:1040B0000000000000000000000000000000000000
:1040C00000F002F800F040F80CA030C808382418BE
:1040D0002D18A246671EAB4654465D46AC4201D140
:1040E00000F032F87E460F3E0FCCB6460126334232
:1040F00000D0FB1AA246AB4633431847CC6B0000F6
:10410000EC6B0000103A02D378C878C1FAD8520795
:1041100001D330C830C101D504680C60704700007D
:104120000023002400250026103A01D378C1FBD8D3
:10413000520700D330C100D50B6070471FB5C04691
:10414000C0461FBD10B510BD06F058F91146FFF767
:10415000F5FF00F020FD06F070F903B4FFF7F2FF61
:1041600003BC06F0C3F90000401E00BF00BF00BF43
:1041700000BF00BF00BF00BF00BF00BF00BF00BF47
:1041800000BFF1D170470000401E00BF00BF00BF5C
:1041900000BF00BF00BF00BF00BF00BF00BF00BF27
:1041A00000BFF1D170470000401E00BF00BF00BF3C
:1041B00000BF00BF00BF00BF00BF00BF00BF00BF07
:1041C00000BFF1D17047000070B505460C46164699
:1041D00002E00FCC0FC5103E102EFAD2082E02D3EB
:1041E00003CC03C5083E042E07D301CC01C5361FFE
:1041F00003E021782970641C6D1C761EF9D270BD15
:104200000A48026803210A430260094880470948B6
:104210000047FEE7FEE7FEE7FEE7FEE7FEE70000F9
:1042200005480649064A074B704700002405004030
:10423000ED420100C1400100A0280020A03800206C
:10424000A0300020A0300020324833490860704779
:104250003248008CC0B2012812D13048808C00074F
:10426000000F00280CD12D48806AF021084040281A
:1042700006D12A48C06A0840002801D101207047B1
:104280000020FCE72548008CC0B201282CD123482F
:10429000808C0007000F002826D12048806AF0217A
:1042A0000840002806D11D48C06A0840002801D1F6
:1042B000012070471948806AF0210840102806D173
:1042C0001648C06A0840002801D10120F1E71348D0
:1042D000806AF0210840302806D11048C06A0840A2
:1042E000002801D10120E4E70020E2E710B5FFF744
:1042F000C9FF002805D00A480A494860C8130A497E
:104300008861FFF7A5FF002802D0012007498860D7
:1043100010BD00000024F40000200020C00F00F0B9
:10432000DFFF07C000050040006C004000060040B1
:1043300070B504460D4616461B2000F081FC32463F
:104340002946204604F0D0FB70BD70B504460D46EA
:104350002A462146FE48FFF7EBFF70BD10B5FD4829
:1043600004F036FCFC49FB4804F068FCFB4800788C
:10437000012815D1F8480178F94801F006FB0446F8
:10438000002C02D0082C02D100E008E007E000BFBA
:10439000F4A2EB212046FFF7CBFF00BF00BF00BF18
:1043A00010BD10B50446FFF7D9FF10BD70B5054626
:1043B0000C46012C06D0022C08D0032C0AD0042C69
:1043C00010D10BE01B2000F03BFC0CE01B2000F0A8
:1043D0003CFC08E01D2000F033FC04E01D2000F050
:1043E00034FC00E000BF00BF70BD70B505460C4650
:1043F000012C06D0022C09D0032C0BD0042C13D195
:104400000CE00221DA4801F06FFD0EE01B2000F005
:104410001CFC0AE01D2000F013FC06E01D2000F04B
:1044200014FC04F066FD00E000BF00BF70BD10B5D5
:10443000112000F0D4FB112000F007FC052000F053
:10444000CEFB052000F001FC092000F0C8FB09208C
:1044500000F0FBFB082000F0C2FB082000F0F5FB99
:1044600010BD10B51D2000F0BAFB1C2000F0B7FBFA
:104470001B2000F0B4FB1D2000F0E7FB1C2000F027
:10448000E4FB1B2000F0DCFB10BDF8B500BFB94811
:10449000B94B052203210090002003F0A3FB054641
:1044A00000BF2E46002E07D000BFAEA2FF218C31E8
:1044B0003046FFF73DFF00BF00BF00BFAF4A0121FC
:1044C000AF4803F00AFC044600BF2546002D07D084
:1044D00000BFA4A2FF2198312846FFF729FF00BFA3
:1044E00000BFF8BD3EB500BF68460078010909016C
:1044F000009168460078F0218843009000BF0A22AE
:10450000A0A168467CDF044600BF2546002D07D0E9
:1045100000BF94A2FF21AF312846FFF709FF00BF7B
:1045200000BFC12078DF044600BF2546002D07D01C
:1045300000BF8CA2FF21B4312846FFF7F9FE00BF6F
:1045400000BF002001900290FF21913168468180D8
:104550004900C18000210181FF219131418101A8E1
:104560007ADF044600BF2546002D07D000BF7DA29C
:10457000FF21BE312846FFF7DBFE00BF00BF3EBD76
:1045800030B5A1B0052102918148006801907448BE
:104590002030C17B684681713C2112A804F08BFF5A
:1045A00002201290012110A84173018202A91591E5
:1045B0003C2103A804F07FFF01216846018501A981
:1045C0000B9103A912A802F0A8FD044600BF2546DE
:1045D000002D07D000BF63A2FF21DE312846FFF780
:1045E000A7FE00BF00BF21B030BD30B597B040215D
:1045F00007A804F060FF67A107A800F0C9FB6AA143
:104600000BA800F0C5FB69A10DA800F0C1FB6CA1CF
:104610000FA800F0BDFB6CA109A800F0B9FB00BF1A
:1046200010A8007E01090901491C10A80176007E2E
:10463000F0218843103010A9087600BF00BF16A8EB
:1046400040780009000116A9487016A84078F021AA
:10465000884316A9487000BF07A800F0CFFC0446A5
:1046600000BF2546002D07D000BF3EA2FF21FB3131
:104670002846FFF75DFE00BF00BF00200490012028
:10468000694608765748059004A9354801F022F993
:10469000044600BF2546002D06D000BF31A2524976
:1046A0002846FFF745FE00BF00BF002001900290A2
:1046B00003900120694608734C48029001A92C48D8
:1046C00001F0AEFB044600BF2546002D07D000BF19
:1046D00024A24549C91D2846FFF72AFE00BF00BF96
:1046E00017B030BDFF202D30414908800846807842
:1046F00040084000401C88700846807802218843AA
:104700003B498870084680781C2188430C30384922
:1047100088700846807820218843354988700720B2
:10472000C87010200871704770B5054628680028C9
:1047300066D13B212F48008876DF044600BF26461D
:10474000002E5CD000BF07A227492A31304653E033
:10475000EFBEADDE74210020142000200C200020CC
:10476000182100202E2E5C6D61696E2E6300000002
:1047700050210020554C010084210020A34301005A
:10478000102000204C696768742042616E6400004C
:10479000D8AB01004578656765722053776564651D
:1047A0006E20414200000000303031005620322E91
:1047B0003020284D617920313320323031342900C6
:1047C0005620312E300000004B617274696B2E6BE5
:1047D0006172756E61406578656765722E636F6D95
:1047E00000000000AD43010003020000EB430100A4
:1047F000042000200A200020FFF79AFD00BF00BF20
:1048000070BD10B5044600BFF94A4721C9002046D3
:10481000FFF78EFD00BF10BD30B587B01C21684684
:1048200004F049FE00200090052040040190801013
:1048300002900321684601730021C1810174ED4893
:104840000590ED480690684603F0ABFB044600BFB8
:104850002546002D06D000BFE54AE8492846FFF767
:1048600067FD00BF00BF07B030BD70B50022012159
:104870000904E348006803F077FA044600BF2546C0
:10488000002D07D000BFDA4A972189002846FFF79C
:104890004FFD00BF00BF70BD30B585B01421684624
:1048A00004F009FE0021684601700020019068466E
:1048B000017240210182B421418273DF044600BFAE
:1048C0002546002D07D000BFC94ACC4922312846D1
:1048D000FFF72EFD00BF00BF1D2000F0B1F905B0AD
:1048E00030BDF8B505462888142856D006DC1028B7
:1048F0000BD0112816D013287CD120E0172846D0E1
:10490000192879D05228F7D12DE01C2000F098F911
:104910001D2000F09AF9A888BA4908800120BA49F8
:10492000087090E01C2000F090F90020C043B549C9
:1049300008800020B4490870FFF7AEFF83E0B34A57
:104940000021B04800887FDF044600BF2746002FC3
:1049500007D000BFA64AA94956313846FFF7E8FC00
:1049600000BF00BF6FE000221146A6480088A9DF03
:10497000044600BF2746002F07D000BF9C4A9F492E
:104980005B313846FFF7D4FC00BF00BF5BE032224A
:10499000A91D9F4804F030FD55E09D4EB61D31889D
:1049A000E889814212D1002231469648008881DF91
:1049B000044600BF2746002F07D000BF8C4A8F490E
:1049C00067313846FFF7B4FC00BF12E00022114601
:1049D0008C48008881DF044600BF2746002F07D09F
:1049E00000BF834AAF2189003846FFF7A1FC00BF12
:1049F00000BF28E026E0FFE7A879002821D11D208C
:104A000000F023F90020014603220092009A1204CC
:104A10008B001A4305231B0707273F02DB1987007A
:104A2000DA5100BF31DF044600BF2746002F07D010
:104A300000BF6F4AB32189003846FFF779FC00BFF9
:104A400000BF00E000BF00BFF8BD10B5044620461F
:104A5000FFF747FF204603F078FB21466D4800F042
:104A60002AFC21466C4801F0B1F810BD10B504468F
:104A7000204601F0F2FC10BD70B500BF00235022AB
:104A800066490D2003F01BFC054600BF2E46002E94
:104A900007D000BF564A5949B3313046FFF748FCAA
:104AA00000BF00BF00BF5E4803F03FFC044600BFEC
:104AB0002546002D07D000BF4D4A5049B831284641
:104AC000FFF736FC00BF00BF564803F037FC044632
:104AD00000BF2546002D07D000BF454A4749BC31DD
:104AE0002846FFF725FC00BF00BF70BD70B500BFB2
:104AF0004D4A0A21082002F059FB044600BF254612
:104B0000002D07D000BF3A4A3C49C4312846FFF780
:104B10000FFC00BF00BF00BF70BD70B500BF4349B0
:104B2000012003F06BFE044600BF2546002D07D090
:104B300000BF2F4ACD2189002846FFF7F9FB00BFAF
:104B400000BF00BF70BD70B500BF394B394A0121AD
:104B5000394803F0CDFC044600BF2546002D07D0A0
:104B600000BF234A2549F6312846FFF7E1FB00BF85
:104B700000BF00BF70BD70B53DDF044600BF2546D5
:104B8000002D06D000BF1A4A2C492846FFF7D0FB5B
:104B900000BF00BF70BDFFF764FCFFF776FCFFF7B6
:104BA000BCFFFFF7D0FFFFF742FCFFF765FFFFF701
:104BB0009DFFFFF797FCFFF718FDFFF7E1FCFFF7FC
:104BC0002BFEFFF78FFD04F0B9F8FFF74EFEFFF75D
:104BD00063FE00BF02F0ACFBFFF7CDFFFAE7012157
:104BE0000522120707231B02D2188300D1507047F9
:104BF0006447010029470100034801004F020000FB
:104C0000102000200A2000200C200020042000207A
:104C1000C42300201821002050210020F823002068
:104C20004B4A01006D4A010048240020F82400206E
:104C30006B4C0100660600000C25002052030000AA
:104C400001218140284A9160704701218140264A14
:104C5000D16070477CB504460D4600940195234A07
:104C60000821684602F0C3FA7CBD7CB504460D46B7
:104C7000164600946846057146711D4A082102F0E7
:104C8000B6FA7CBDF8B504460D46264600BF082D91
:104C900001D1012000E000200746002F06D100BF0F
:104CA00014A2FF211431FFF743FB00BF00BF31689E
:104CB00070688847F8BDF8B505460E462C4600BF1B
:104CC000082E01D1012000E000200746002F05D169
:104CD00000BF14A2A821FFF72BFB00BF00BF617922
:104CE000207922689047F8BD00050050854C0100EE
:104CF000B74C01002E2E5C2E2E5C2E2E5C2E2E5CD0
:104D00002E2E5C496E636C7564655C6170705F63C8
:104D10006F6D6D6F6E5C6170705F74696D65722E22
:104D2000680000002E2E5C2E2E5C2E2E5C2E2E5C3B
:104D30002E2E5C496E636C7564655C6170705F6398
:104D40006F6D6D6F6E5C6170705F627574746F6EA5
:104D50002E680000F8B505460E460024327821463C
:104D6000641C6A5472782146641C6A5400BF022C89
:104D700001D1012000E000200746002F05D100BF2F
:104D800008A22021FFF7D4FA00BF00BF2046F8BDDB
:104D900070B504460D46284604F00CFB2080656083
:104DA00070BD00002E2E5C2E2E5C2E2E5C2E2E5CF6
:104DB0002E2E5C536F757263655C626C655C626C11
:104DC000655F73657276696365735C626C655F735A
:104DD00072765F636F6D6D6F6E2E630070B5044603
:104DE0000D4600BF002D01D0012000E00020064646
:104DF000002E05D100BFE6A23321FFF799FA00BFCC
:104E000000BF00BF002C01D0012000E000200646BA
:104E1000002E05D100BFDEA23421FFF789FA00BFC2
:104E200000BF2878207029882879FF231B021940A9
:104E300000200206080A1043607028791B022968C6
:104E4000194000200204080C1043A07029791B02AD
:104E50002868184000210902000E0843E0702879F4
:104E60002071287A6071190CA8680840000AA071A6
:104E70000902A8680840000CE07170BDF8B505464D
:104E80000E46002400BF002E01D0012000E00020CB
:104E90000746002F05D100BFBDA24B21FFF748FAFE
:104EA00000BF00BF00BF002D01D0012000E00020A6
:104EB0000746002F05D100BFB5A24C21FFF738FAF5
:104EC00000BF00BF32782046611CCCB22A54291999
:104ED000708800F054F90019C4B22919B08800F0A4
:104EE0004EF90019C4B22919F08800F048F90019E8
:104EF000C4B200BF072C01D1012000E0002007460A
:104F0000002F05D100BFA2A25421FFF711FA00BF64
:104F100000BFF8BDF0B58FB007460D4614461E46DB
:104F200000BF002D01D0012000E00020009000987B
:104F3000002805D100BF96A26D21FFF7F9F900BF47
:104F400000BF00BF002C01DD012000E00020009028
:104F50000098002805D100BF8DA26E21FFF7E8F967
:104F600000BF00BF1C2107A804F0A5FA6946087F0E
:104F700002218843801C69460877002008900A9027
:104F80000B900C900D9000BF012108A88176684617
:104F9000078700BF00200190317868460171717861
:104FA0004171807906218843811C6846817180792E
:104FB0000821884301466846817180791021884321
:104FC00001466846817180794108490068468171CF
:104FD000142102A804F06FFA0EA8029001A8039011
:104FE00068460482002141828482069502AA07A9AC
:104FF0006B480088149BA2DF0FB0F0BD7FB504465C
:1050000000BF0121684681736649818100BF644AFF
:1050100003A90120A0DF0546002D02D0284604B0D8
:1050200070BD208800280DDD5F480090228823464F
:105030003C335E486168FFF76DFF0546002D01D0E7
:105040002846ECE7208900280EDD59480090228987
:1050500023463C335548401FE168FFF75BFF054698
:10506000002D01D02846DAE7208A00280EDD5148BD
:105070000090228A23463C334C48001F6169FFF7A9
:1050800049FF0546002D01D02846C8E7208B00289F
:105090000EDD49480090228B23463C334348801E56
:1050A000E169FFF737FF0546002D01D02846B6E736
:1050B000208C00280EDD41480090228C23463C3392
:1050C0003A48C01E616AFFF725FF0546002D01D052
:1050D0002846A4E7208D00280EDD39480090228D57
:1050E00023463C333148401EE16AFFF713FF054673
:1050F000002D01D0284692E7206B002813D001A88C
:10510000216BFFF76BFE2F4823463C33082201A991
:1051100000902648801FFFF7FDFE0546002D01D0B8
:1051200028467CE700BF606B00280FD0264800901F
:10513000606B027923463C3301681C48401CFFF732
:10514000E9FE0546002D01D0284668E7A06B00283F
:1051500013D001A8A16BFFF791FE1C4823463C33F6
:10516000072201A9009011482730FFF7D3FE05461A
:10517000002D01D0284652E700BF00204FE702462D
:105180000A70FF2000021040001248700220704791
:105190002E2E5C626C655F6469732E6300000000F4
:1051A000182000200A1800001A200020292A0000D8
:1051B000222000202A200020322000203A20002037
:1051C000422000204A200020522000205A200020A7
:1051D0008A88028670470022D24302867047F8B55B
:1051E00005460E46B71D3888E98C884209D1388BB0
:1051F000012806D1686B002803D0B97E28466A6B67
:1052000090473220405D002854D0B41D2188688921
:10521000814210D1208B02280DD120461A3000F097
:10522000B1FC002803D00020FE49086041E00120C5
:10523000FC4908603DE02188688A814210D1208BBA
:1052400002280DD120461A3000F09CFC002803D023
:105250000020F44948602CE00120F249486028E031
:105260002188688B814210D1208B02280DD12046E5
:105270001A3000F087FC002803D00020E94988603C
:1052800017E00120E749886013E02188688C81429B
:105290000FD1208B02280CD120461A3000F072FC6E
:1052A000002803D00020DF49C86002E00120DD496A
:1052B000C86000BFF8BD70B505460C4620881028B0
:1052C00004D0112807D050280FD109E021462846E4
:1052D000FFF77EFF0AE021462846FFF77CFF05E046
:1052E00021462846FFF77BFF00E000BF00BF70BDEE
:1052F00030B58FB004460D463220005D002825D021
:105300000020079000BF6846007F01090901491C81
:1053100068460177007FF02188431030694608779E
:1053200000BF00BF6846407F01090901491C68466B
:105330004177407FF021884310306946487700BFAD
:10534000887F06218843801C694688771C2108A82D
:1053500004F0B1F808A8007802218843811C08A84D
:1053600001700078102188433221095D002901D0A5
:10537000012100E00021090110221140084308A981
:105380000870002009900B900C903220005D0028DE
:1053900001D007A800E000200D9000200E902F20E3
:1053A000015D68468171A04981800020009000BFA6
:1053B0006846007801090901491C684601700078B7
:1053C000F021884310306946087000BF00BF68466E
:1053D000407801090901684641704078F02188430E
:1053E0006946487000BF6846807806218843811C62
:1053F000684681708078082188430146684681703C
:105400008078102188430146684681708078410881
:10541000490068468170142102A804F04CF801A8E4
:1054200002906846039001210182002141820121FE
:10543000818200200690A088A31D02AA08A9A2DFED
:105440000FB030BD30B58FB004460D460020079038
:1054500000BF6846007F01090901491C68460177C1
:10546000007FF021884310306946087700BF00BFF5
:105470006846407F01090901491C68464177407F21
:10548000F021884310306946487700BF6846807F26
:1054900006218843811C684681771C2108A804F0F6
:1054A0000AF808A8007802218843811C08A8017026
:1054B000007810218843411808A801700020099045
:1054C0000B900C9007A80D9000200E902F20015DEE
:1054D000684681715449491C81800020009000BFBA
:1054E0006846007801090901491C68460170007886
:1054F000F021884310306946087000BF00BF68463D
:10550000407801090901684641704078F0218843DC
:105510006946487000BF6846807806218843811C30
:10552000684681708078082188430146684681700A
:105530008078102188430146684681708078410850
:10554000490068468170142102A803F0B4FF01A845
:1055500002906846039001210182002141820121CD
:10556000818200200690A08823460E3302AA08A953
:10557000A2DF0FB030BD30B58FB004460D4600201D
:10558000079000BF6846007F01090901491C684671
:105590000177007FF021884310306946087700BF0B
:1055A00000BF6846407F01090901491C68464177F0
:1055B000407FF021884310306946487700BF684635
:1055C000807F06218843811C684681771C2108A8BA
:1055D00003F071FF08A8007802218843811C08A805
:1055E0000170007810218843411808A8017000203C
:1055F00009900B900C9007A80D9000200E902F2082
:10560000015D684681710849891C818000200090F5
:1056100000BF6846007801090901491C684601700D
:10562000007803E01825002002850000F02188435F
:1056300010306946087000BF00BF68464078010915
:105640000901684641704078F021884369464870F6
:1056500000BF6846807806218843811C68468170B7
:10566000807808218843014668468170807810213F
:105670008843014668468170807841084900684641
:105680008170142102A803F016FF01A80290684659
:1056900003900121018200214182012181820020A9
:1056A0000690A0882346163302AA08A9A2DF0FB0ED
:1056B00030BD30B58FB004460D460020079000BFC6
:1056C0006846007F01090901491C68460177007F8F
:1056D000F021884310306946087700BF00BF684654
:1056E000407F01090901491C68464177407FF0214C
:1056F000884310306946487700BF6846807F06219E
:105700008843811C684681771C2108A803F0D3FEDA
:1057100008A8007802218843811C08A8017000783D
:1057200010218843411808A80170002009900B90AF
:105730000C9007A80D9000200E902F20015D684668
:105740008171FE4981800020009000BF684600788A
:1057500001090901491C684601700078F02188435D
:1057600010306946087000BF00BF684640780109E4
:105770000901684641704078F021884369464870C5
:1057800000BF6846807806218843811C6846817086
:10579000807808218843014668468170807810210E
:1057A0008843014668468170807841084900684610
:1057B0008170142102A803F07EFE01A802906846C1
:1057C0000390012101820021418201218182002078
:1057D0000690A08823461E3302AA08A9A2DF0FB0B4
:1057E00030BD30B58FB004460D461C2108A803F02B
:1057F00062FE08A8007802218843811C08A8017075
:10580000007808218843411808A801700078102109
:105810008843411808A80170002009900B900C9053
:105820000D900E902F20015D68468172C349491C7E
:1058300001810020019000BF68460079010909013B
:10584000491C684601710079F0218843103069468F
:10585000087100BF00BF6846407901090901491C71
:10586000684641714079F02188431030694648719B
:1058700000BF6846807906218843811C6846817193
:10588000807908218843014668468171807910211A
:10589000884301466846817180794108490068461D
:1058A0008171142103A803F006FE02A8039001A849
:1058B00004900121684681820021C1820121018377
:1058C00000200790A0882346263303AA08A9A2DF58
:1058D0000FB030BD70B586B004460E46306820600B
:1058E000706860630020C0432086317A3220015501
:1058F000934B0FCB01AD0FC521462F3101A862DFBD
:105900000546002D02D0284606B070BD2F20015D4F
:10591000684681758949091F8182221D05A90120D8
:10592000A0DF0546002D01D02846EDE73146204690
:10593000FFF7DEFC0546002D01D02846E4E731469E
:105940002046FFF77FFD0546002D01D02846DBE706
:1059500031462046FFF70FFE0546002D01D02846B0
:10596000D2E731462046FFF7A4FE0546002D01D0C0
:105970002846C9E731462046FFF733FF0546002D8C
:1059800001D02846C0E70020BEE773B586B00446C4
:1059900000250121059101260596E08807AB05AA9F
:1059A0000021A4DF0546002D02D0284608B070BDB6
:1059B0006448006800280BD1E18868468180012195
:1059C000817100210181208E01A9A6DF054600BF5B
:1059D00008252846EAE733B587B0044600250121AB
:1059E000069105916846818A0691E08908AB06AA6E
:1059F0000021A4DF0546002D02D0284609B030BDA5
:105A0000208E5149884220D03220005D00281CD0D1
:105A100000200190029003900490E1896846818003
:105A2000012181710021018105A8039008A804903B
:105A3000208E01A9A6DF0546002D05D16846818A82
:105A4000008B814200D00C2500E008252846D5E7D0
:105A500033B587B0044600250121069105916846BB
:105A6000818A0691E08A08AB06AA0021A4DF0546D8
:105A7000002D02D0284609B030BD208E3249884220
:105A800020D03220005D00281CD000200190029020
:105A900003900490E18A6846818001218171002190
:105AA000018105A8039008A80490208E01A9A6DF13
:105AB0000546002D05D16846818A008B814200D0C1
:105AC0000C2500E008252846D5E733B587B0044605
:105AD00000250121069105916846818A0691E08B97
:105AE00008AB06AA0021A4DF0546002D02D02846F7
:105AF00009B030BD208E1449884229D03220005D83
:105B0000002825D000200190029003900490E18BA2
:105B100068468180012181710021018105A80390DF
:105B200008A80490208E01A9A6DF0546002D0ED1FD
:105B30006846818A008B814209D007E00585000014
:105B4000DCAB010018250020FFFF00000C2500E061
:105B500008252846CCE713B586B0044601210191FB
:105B60000020029003900490059068468172E18CB9
:105B7000018107A8059001A80490208E02A9A6DF44
:105B800008B010BD014600BF08784B781B021843CF
:105B90000246D007C00F70478A88C2837047002230
:105BA000D243C283704770B504460E46B51D28889F
:105BB000E189884209D1288B012806D1A0690028F3
:105BC00003D0A97E2046A269904770BD70B50546F6
:105BD0000C462088102804D0112807D050280FD157
:105BE00009E021462846FFF7D7FF0AE0214628466C
:105BF000FFF7D5FF05E021462846FFF7D4FF00E078
:105C000000BF00BF70BD30B58FB004460D46002008
:105C1000079000BF6846007F01090901491C6846DA
:105C20000177007FF021884310306946087700BF74
:105C300000BF6846407F01090901491C6846417759
:105C4000407FF021884310306946487700BF68469E
:105C5000807F06218843811C684681771C2108A823
:105C600003F029FC08A8007802218843811C08A8B9
:105C70000170007810218843411808A801700020A5
:105C800009900B900C9007A80D9000200E90617F5A
:105C900068468171A14981800020009000BF68465C
:105CA000007801090901491C684601700078F0215B
:105CB000884310306946087000BF00BF68464078CE
:105CC00001090901684641704078F021884369461E
:105CD000487000BF6846807806218843811C68466A
:105CE00081708078082188430146684681708078F9
:105CF0001021884301466846817080784108490038
:105D000068468170142102A803F0D5FB01A8029017
:105D10006846039001210182002141820121818294
:105D200000200690A088A31D02AA08A9A2DF0FB038
:105D300030BD30B58FB004460D461C2108A803F0D5
:105D4000BAFB08A8007802218843811C08A80170CA
:105D5000007808218843411808A8017000781021B4
:105D60008843411808A80170002009900B900C90FE
:105D70000E90617F684681726849491C018100204C
:105D8000019000BF6846007901090901491C684675
:105D900001710079F021884310306946087100BF15
:105DA00000BF6846407901090901491C68464171F4
:105DB0004079F021884310306946487100BF684639
:105DC000807906218843811C684681718079082189
:105DD00088430146684681718079102188430146D5
:105DE00068468171807941084900684681711421B3
:105DF00003A803F060FB02A8039001A8049001210E
:105E0000684681820021C182012101830020079020
:105E1000A08823460E3303AA08A9A2DF0FB030BD25
:105E200070B586B004460E46306820607068A06188
:105E30000020C043E083317A20200155384B0FCB3E
:105E400001AD0FC521461D3101A862DF0546002DB9
:105E500002D0284606B070BD617F684681752F4923
:105E6000491E8182221D05A90120A0DF0546002DC3
:105E700001D02846EEE731462046FFF7C4FE05462E
:105E8000002D01D02846E5E731462046FFF751FFB7
:105E90000546002D01D02846DCE70020DAE733B5BF
:105EA00085B004460025E08B1E49884219D0202089
:105EB000005D002815D00121009100200190029082
:105EC00003900490E188684681800121817100215E
:105ED0000181039006A80490E08B01A9A6DF054686
:105EE00000BF284607B030BD33B585B00446002555
:105EF00001210091002001900290039004906846D7
:105F00008171E189818006A8049068460390E08B46
:105F100001A9A6DF0546284607B030BDAD3C00000C
:105F2000ECAB0100FFFF0000002314214143FC4AB9
:105F300053541421414389184B80022314214143B7
:105F400089188B600023142141438918CB601421E8
:105F5000414389180B611421414389188B80704794
:105F600010B50020EF490880EF490860EC49091F8F
:105F7000087048708870002403E02046FFF7D4FFC3
:105F8000641C1E2CF9D310BDFFB583B004460F4628
:105F900015460326E448006800280BD1002D06D1E1
:105FA0000698002803D10220DF49086002E00120A2
:105FB000DD490860DC480068030004F09EFA07FD34
:105FC00005314E84BAD7FD00D8484069401C0028EE
:105FD00008D001221207126991B2D44A506903F025
:105FE000A3FA02E0012000074069401E01210907D1
:105FF000096989B248430290012000070069000442
:10600000820C01200007006980B2784301460298A3
:1060100051DF0646002E02D10220C3490860D0E0BD
:10602000384650DF0646002E16D1002D11D10698B5
:1060300000280AD12078042803D10720BA49086033
:106040000AE00520B849086006E00420B649086067
:1060500002E00320B4490860B3E0B4484069401C42
:10606000002808D001221207126991B2AF4A506984
:1060700003F05AFA02E0012000074069401E0121A6
:106080000907096989B24843012109070290096992
:1060900089B2794308462A46029951DF0646002E06
:1060A00010D1069800280AD12078042803D10620B0
:1060B0009D49086006E005209B49086002E0042035
:1060C000994908607DE099484069401C002808D043
:1060D00001221207126991B2944A506903F024FA1E
:1060E00002E0012000074069401E012109070969FB
:1060F00089B24843A9004018618840180121090766
:106100000290096989B27943AA00891862888818BF
:10611000069A029951DF0646002E09D120780428FC
:1061200003D106208049086002E005207E4908600E
:1061300047E001200007006980B27843AB00C01837
:106140000290608882082169029851DF0646002E7D
:106150000BD1002D06D10698002803D107207249E3
:10616000086002E00620704908602AE06F48406934
:10617000401C002808D001221207126991B26B4A14
:10618000506903F0D1F902E0012000074069401E88
:1061900001210907096989B24843019001200007DC
:1061A000006981B2019803F0BFF9029050DF064602
:1061B000002E04D1072000E002E05B49086000E007
:1061C00000BF00BF304607B0F0BDF0B585B00F2767
:1061D0005348001F00781421484351494418E5688A
:1061E0002078022804D0042823D005286FD16FE03E
:1061F000206903904B48008886026088801B0490C9
:10620000039880190390A0888019451901218902FB
:106210000498884206D2049882082846039951DFE0
:10622000074605E0FF2201322846039951DF074661
:1062300081E0A06800013E49401800890490A068F0
:106240000001401840890390A06800014018406890
:1062500002900298A84205D10399049848436188A6
:10626000884202D0A06803280DD1012000070069F0
:1062700081B2284603F058F92A4909884618304661
:1062800050DF074622E001200007006981B228465E
:1062900003F04AF9064601200007006980B2704306
:1062A000281A8008019001200007006980B2711C43
:1062B000484361884919401A8008009031462046B9
:1062C000009B019AFFF760FE074600BF33E031E014
:1062D00001200007006981B2284603F025F906462F
:1062E000A088411901200007006980B27043081A94
:1062F00080080490A0884019618842180120000796
:10630000006980B2711C4843801A800803903146AE
:106310002046039B049AFFF737FE07460BE0000078
:106320002C2500206C200020702000200010001080
:106330008427002000BF00BF002F02D10120FE49AA
:106340008870384605B0F0BDFFB581B006461746E7
:106350000024F94840781E2837D0F7480078F649DD
:1063600049784018C4B21E2C02DB20461E38C4B245
:1063700014206043F049091D0E5414206043401856
:106380000761142060434118029805C8CA608860FC
:1063900014206043E84A121D80180499418014209B
:1063A000604380180A9981800025101F807800289A
:1063B00005D1FFF70AFF0546112D00D10025DE4863
:1063C0004078401CDC49487000E00425284605B0B0
:1063D000F0BDF8B50446D848007814214843D649A2
:1063E000091D0E5C081F007814214843D249091D7D
:1063F000401880680001D1490D58CF480078142119
:106400004843CD49091D40184088091F009009786C
:1064100014225143C84A121D89180B69111F0978AB
:1064200014225143C44A121D8918084608302246D6
:106430003146A847F8BD10B50024BF484078002871
:1064400009DDFFF7C2FE0446002C04D0112C02D057
:106450002046FFF7BEFF204610BDFEB505460026CC
:10646000B548807801287DD10020B3498870B448B0
:106470000068082811D1022D03D10020B04908601E
:1064800002E00020AF490870FFF7D5FF0646002E56
:1064900002D03046FFF79DFFFEBD022D02D0032D36
:1064A00079D174E0A448007814214843A249091D19
:1064B0004418A5480088401CA34908802078022879
:1064C00007D10846008880026188884201DB0120EC
:1064D00000E0002007462078052805D1984800688C
:1064E000072801D1012000E0002002902078042834
:1064F00005D193480068072801D1012000E0002061
:106500000190207804280BD18F4800888002618890
:10651000884205DB8A480068002801D1012000E09C
:10652000002000900298002807D10198002804D18B
:106530000098002801D1002F1FD00020804908605A
:106540003046FFF746FF7C490878FFF7EDFC002056
:106550007D49088078484078401E77494870084651
:10656000007800E01AE0401C0870084600781E28F9
:1065700003DB084600781E380870FFF75CFF06460C
:10658000002E02D03046FFF724FF05E003E00D2087
:10659000FFF71FFF00E000BF00BF00BF00BF7BE7A9
:1065A00070B5FFF7DDFC0020684908806848406945
:1065B000401C002808D001221207126991B2644AD7
:1065C000506902F0B1FF02E0012000074069C01EDF
:1065D00001210907096989B248435E490860002022
:1065E0005949088000BF0DE000210201534B99502A
:1065F0000201D21811810201D21891810201D21830
:106600005181401C0228EFD308204D4908605048B2
:106610004069401C002808D001221207126991B27B
:106620004B4A506902F080FF02E0012000074069F8
:10663000401E01210907096989B248430646012025
:106640000007006981B2304602F06EFF054650DF58
:106650000446002C04D1012037498870394908705C
:10666000204670BDF8B504460D4600BF3548007899
:10667000002801D10820F8BD00BF002C01D10E2058
:10668000F9E7002D01D10E20F5E72068002801D19F
:106690000E20F0E7A08801210907096989B2884224
:1066A00002DCA088102801DA0720E4E7E08800284F
:1066B0001ED027484069401C002808D0012212073C
:1066C000126991B2224A506902F02EFF02E00120C5
:1066D00000074069401E01210907096989B2484342
:1066E000E188A28851431B4A12688918884201D266
:1066F0000720C0E720798007800F002801D00720FD
:10670000B9E712480088022801D10420B3E70F48F6
:10671000008828600F48006868600C4909880901F2
:10672000064A89186868486008490988090120688C
:106730005050A08805490FE028250020842700201C
:10674000702000206E2000206C200020642000209B
:1067500000100010682000200988090189180881AC
:10676000E088F84909880901891848810027A68826
:10677000E1884E4300BF781C87B201200007006902
:1067800080B2B04205D201200007006980B2361AFB
:1067900000E0002601200007006980B2EA4909688C
:1067A0004018E949086001200007006980B2B04242
:1067B000E1D9E44800880001E44940188781E148B4
:1067C0000088401CDF490880002054E73CB50346A0
:1067D00000BFDF480078002801D108203CBD00BF81
:1067E000002B01D10E20F9E7002A01D10E20F5E798
:1067F0001868022805D218680001D44C20580028D7
:1068000001D10720EAE75C68186801940090019CB8
:1068100018680001CD4D40190089484320180190A7
:10682000009800012C4600194089009C240164193D
:1068300024896043009C2401641964680019019C48
:10684000A04201D80720C9E7019C0098546010605D
:106850000020C3E7F8B504460E4615461F4600BFA4
:10686000BB480078002801D10820F8BD00BF002EE9
:1068700001D10E20F9E7002C01D10E20F5E72068A8
:10688000022805D220680001B0490858002801D12B
:106890000720EAE720680001AC49401840892168D8
:1068A0000901AA4A891809894843216809018918F8
:1068B000496840186168884201D80720D5E7002D53
:1068C00006D020680001A14940180089A84201DAD9
:1068D0000720CAE7E819216809019C4A8918098933
:1068E000884201DD0720C0E7304600F050F900285B
:1068F00004D0384600F04BF9002801D11020B4E74D
:10690000606800F044F9002801D11020ADE72B4663
:106910003246214602200097FFF716FDA5E7F8B59D
:1069200004460E4615461F4600BF894800780028D9
:1069300001D10820F8BD00BF002E01D10E20F9E7DB
:10694000002C01D10E20F5E72068022805D220682E
:1069500000017E490858002801D10720EAE7206895
:1069600000017A494018408921680901774A89184D
:1069700009894843216809018918496840186168F4
:10698000884201D80720D5E7002D06D020680001F5
:106990006E4940180089A84201DA0720CAE7E819C1
:1069A00021680901694A89180989884201DD07209F
:1069B000C0E7304600F0EBF8002804D0384600F07D
:1069C000E6F8002801D11020B4E7606800F0DFF895
:1069D000002801D11020ADE72B4632462146052084
:1069E0000097FFF7B1FCA5E7F8B507460C4615463A
:1069F0001E4600BF56480078002801D10820F8BD87
:106A000000BF002C01D10E20F9E7002F01D10E208C
:106A1000F5E72068022805D2206800014B49085894
:106A2000002801D10720EAE7206800014749401803
:106A3000408921680901454A891809894843216824
:106A400009018918496840186168884201D80720FF
:106A5000D5E7002D06D0206800013C494018008988
:106A6000A84201DA0720CAE7A81921680901374AB4
:106A700089180989884201DD0720C0E7384600F0FF
:106A800086F8002804D0304600F081F8002801D1B3
:106A90001020B4E7606800F07AF8002801D11020D7
:106AA000ADE7606881192A46384602F0A5FC00204F
:106AB000A5E7F8B504460D4600BF25480078002834
:106AC00001D10820F8BD00BF002C01D10E20F9E74C
:106AD0002068022805D2206800011C4908580028B7
:106AE00001D10720EEE720680001184940184089CD
:106AF00021680901154A8918098948432168090153
:106B00008918496840186168884201D80720D9E788
:106B1000606800F03CF8002801D11020D2E723681B
:106B20001B010A4FDB1962685B68D01A22681201E8
:106B30003B46D218118902F0F7FC00290AD0072041
:106B4000C0E7000064200020682000208427002087
:106B50006E20002000202B46024621460090042093
:106B6000FFF7F2FB06463046ACE7014600BF0C4893
:106B70000078002801D10820704700BF002901D10A
:106B80000E20F9E70748407808600020F4E7014646
:106B90008807800F002801D1012070470020FCE702
:106BA0006E20002028250020F7B584B004460F464B
:106BB00006980678B01C1F2803DC2079801C1F284B
:106BC00002DD0C2007B0F0BD1F20801B801E85B2A7
:106BD0000295B11C781802A97DDF03900398002864
:106BE00001D00398EEE72068022808D168460089A2
:106BF000A84204DC09200190684605890BE00820C2
:106C000001902079002804D02079A84201DC257960
:106C100001E068460589681CC2B23046711CCEB2DC
:106C20003A543046721CD6B201993954069801780C
:106C3000A81C0818C1B2069801700020C2E7F8B578
:106C400005460C462078001D1F2801DD0C20F8BDEC
:106C5000684679DF0646002E01D03046F7E703216B
:106C60002278501C2070A95419212278501C2070C1
:106C7000A954207841196846008800F08BFA2178E1
:106C8000401820700020E2E7F8B505460F4616468A
:106C90001C466868002801D10720F8BD2078801CB8
:106CA000298840181F2801DD0C20F6E72878401CB1
:106CB000C1B22278501C2070B1542178481C207039
:106CC00077542A8823789819696802F095FB207810
:106CD0002978401820700020DFE730B5034610788F
:106CE000C01C1F2801DD0C2030BD02241578681C53
:106CF00010704C550A241578681C10704C55157886
:106D0000681C10704B550020EEE7FFB587B00646B3
:106D10001D46109C0020069020780590002747E033
:106D2000B900706841180A88684602814988418123
:106D3000002203A902A864DF04900498002802D06E
:106D400004980BB0F0BD6846017B099881422ED1B2
:106D50000698002801D0002000E002200190207851
:106D60006946097B4118019808181F2801DD0C208D
:106D7000E7E70698002809D12078401C2070227887
:106D8000511C08982170A8540120069020784219BF
:106D900003A902A864DF04900498002801D0049895
:106DA000CFE720786946097B4018207000BF7F1C20
:106DB0003088B842B4DC0698002806D021780598BF
:106DC000401C081AC1B2059829540020B9E7FFB544
:106DD00081B0074615460A9E009602223846049B5B
:106DE0000299FFF792FF0446002C02D0204605B01E
:106DF000F0BD0096102229463846049BFFF785FF18
:106E00000446002C01D02046F1E70020EFE70146C0
:106E10000888062808DB08881922D201904205DD7F
:106E20000888E14A904201D0072070474888062828
:106E300008DB48881922D201904205DD4888DA4AE9
:106E4000904201D00720F0E70888D74A904208D046
:106E50004888904205D008884A88904201DD072082
:106E6000E3E70020E1E7F8B506460D461446207832
:106E7000801D1F2801D90C20F8BD3046FFF7C7FF41
:106E80000746002F01D03846F6E705212278501C2E
:106E90002070A95412212278501C2070A954227805
:106EA0005119308800F076F9217840182070227846
:106EB0005119708800F06EF9217840182070002078
:106EC000DAE7F8B505460E4614462879801CC7B2A5
:106ED0002078801CC0191F2801DD0C20F8BD781C0B
:106EE000C1B22278501C2070B154FF212278501C6E
:106EF0002070B15422789119288800F04BF921783C
:106F000040182070A88800280EDDA868002801D14C
:106F10000720E3E7AA8823789819A96802F06CFA99
:106F200020782979401820700020D7E7FEB5074661
:106F30000E461446786B002801D10720FEBD0020C4
:106F4000019032E0796B0C22019850430D1828799A
:106F5000801CC0B200900098401CC1B22278501C26
:106F60002070B15416212278501C2070B154227820
:106F70009119288800F00EF9217840182070A8880F
:106F800000280EDDA868002801D10720D6E7AA88CE
:106F900023789819A96802F02FFA207829794018E7
:106FA00020700198401CC0B201903820C15D01984A
:106FB0008142C7DC0020C1E7F8B504460F461646FB
:106FC0000025002030702068002809D0324639465C
:106FD0002046FFF7E9FD0546002D01D02846F8BD03
:106FE0006079002808D031463846FFF728FE05466C
:106FF000002D01D02846F2E7208900280BDD33461A
:107000003A46012120460830FFF73EFE0546002D96
:1070100001D02846E3E7206900280BD00020216931
:10702000085632463946FFF758FE0546002D01D076
:107030002846D4E7A08A00280CDD3B460622022120
:10704000204614300096FFF7C2FE0546002D01D001
:107050002846C4E7A08B00280CDD3B46072203210D
:1070600020461C300096FFF7B2FE0546002D01D0E9
:107070002846B4E7A08C00280CDD3B4615221421DD
:10708000204624300096FFF7A2FE0546002D01D0D1
:107090002846A4E7E06A002809D032463946E06A6B
:1070A000FFF7E1FE0546002D01D0284697E7206B4B
:1070B000002809D032463946206BFFF702FF05460B
:1070C000002D01D028468AE73820005D002809DD20
:1070D000324639462046FFF729FF0546002D01D0EC
:1070E00028467CE728467AE701460889002808D028
:1070F000C868002805D0C86800780422104000281D
:1071000001D1072070470020FCE7014608890028CC
:1071100001DD072070470020FCE7F3B593B00D4672
:107120000021129111911398002814D01398FFF7A1
:10713000DBFF0446002C02D0204615B0F0BD12AA99
:1071400009A91398FFF738FF0446002C01D0204608
:10715000F3E709AE00E00026002D13D02846FFF724
:10716000D4FF0446002C01D02046E6E711AA01A96D
:107170002846FFF721FF0446002C01D02046DCE71B
:1071800001AF00E0002710A803793A46017A3046A3
:1071900072DFD2E702460A70FF20000210400012A0
:1071A0004870022070470000FFFF000030B5034622
:1071B000481CC004040C10468507AD0F002D01D1FA
:1071C000012500E00025002D01D1072030BD7A48BF
:1071D00002601019794D28600020794D2870794D92
:1071E000287079480380794801800020EEE7F7B5E0
:1071F00084B00C467448008884426BDC744D0020D7
:10720000039000F0A4F802900298012814D003A87B
:107210002BDF0746022F01D172B60CE000BF0197A9
:10722000019F002F06D000BF6AA259210198FDF7E7
:107230007FF800BF00BF00BF6148007800F0B1F8E0
:1072400060490978884206D05D480578007800F0EA
:10725000A8F85B4908700298012814D062B6684605
:10726000007B2CDF0746022F0CD000BF0197019F47
:10727000002F06D000BF57A261210198FDF758F8F2
:1072800000BF00BF00BF5248854221D0E9004A4AF2
:107290000698126850500498002811D0002C0FDD79
:1072A000494909886943454A126888182246049961
:1072B00002F0A2F8E800404909684018848005E01F
:1072C0000020E9003C4A126889188880002600E006
:1072D000042600E00926304607B0F0BDF8B50546A3
:1072E0000E46174605200090354800783549097844
:1072F00088421BD033480478007800F052F83149B6
:1073000008703148008860432C490968401828609B
:10731000E00029490968401880883080E00026494B
:107320000968085838600020009000BF0098F8BD38
:107330000EB504E068468188009A029890476A4634
:1073400001A902A8FFF7CAFF0028F3D00EBD10B5AF
:107350002D484068C105C90D002920D00A46103AC1
:10736000104600280DDA284B1C330407240F083C74
:10737000A408A4001B598407E40EE3401B069B0FDE
:107380000BE0224B032424021B198408A4001B5980
:107390008407E40EE3401B069B0FD8B210BD042007
:1073A000FCE7014609480088814201DA481C00E0F8
:1073B0000020C0B270470000742000207820002018
:1073C0007D2000207C2000207E20002080200020C6
:1073D000FFFF00002E2E5C2E2E5C2E2E5C2E2E5CCF
:1073E0002E2E5C536F757263655C6170705F636FA6
:1073F0006D6D6F6E5C6170705F7363686564756CF2
:1074000065722E630000000000ED00E000E100E086
:1074100010B5002819DAFA4A03071B0F083B9B082E
:107420009B00D2588307DC0EFF23A3409A438B07AF
:107430001B0E8407E40EA3401A43F14B0407240FEC
:10744000083CA408A4001A5118E0EE4A03231B02CA
:10745000D21883089B00D2588307DC0EFF23A34079
:107460009A438B071B0E8407E40EA3401A43E54B97
:10747000032424021B198408A4001A5110BD10B55E
:107480000446E148846003211120FFF7C1FF10BDCD
:1074900010B501200004DD494860DC4940394860EE
:1074A000112000F0DDFC112000F0CCFC0120D849B7
:1074B00008602F20FCF758FE10BD10B511200121E7
:1074C0008140D04A8032116000BF01200004CF49C2
:1074D0008860CE49403988600120CD4948602F201E
:1074E000FCF742FE10BDF0B5024628205043C94BC0
:1074F0001B68C118C8480068401C002802D1C64853
:10750000026059E0C4488B68006828246043C14C7D
:10751000246800198068834217D8BF480068282370
:107520005843BC4B1B68C01880688B68C31ABA48A4
:10753000006828246043B74C246800198360B6486B
:1075400000684862B448026036E08B68B24D2C682F
:1075500028680DE028254543AE4E3668AD19AD6864
:107560005B1B044628254543AA4E3668AD19686A58
:10757000451C002D07D028254543A64E3668AD1979
:10758000AD689D42E6D3451C002D0CD0282545430F
:10759000A04E3668AD19AD68EE1A282545439D4FBB
:1075A0003F68ED19AE608B60486228256543994EAF
:1075B0003668AD196A6200BFF0BD70B50246964CE0
:1075C0002168084609E0904200D109E001462824DC
:1075D0004443904D2D686419606A441C002CF2D11C
:1075E00000BF441C002C00D170BD814209D18A4CDF
:1075F000246828256C43874D2D686419646A864D7C
:107600002C6028244443834D2D686419A3682824E2
:107610004443804D2D686419656A28244C437D4E8F
:107620003668A419656228244C437A4D2D68641984
:10763000606A441C002C0CD028244443754D2D68EE
:107640006419A468E51828244443724E3668A419C6
:10765000A56000BFC8E710B5112000F0FAFB10BD0F
:1076600010B5142000F0F5FB10BD70B504466B4852
:107670000068002813D0694A216AE06912689047BF
:10768000054600BF2E46002E07D000BF64A2FF2192
:1076900055313046FCF74CFE00BF00BF02E0E16907
:1076A000206A884770BDF8B55B480068401C002818
:1076B0003AD0002700F006FC0446654801682046E1
:1076C00000F003FC06465448056811E02820684392
:1076D000504909684418A068B04200D90BE0A0687E
:1076E000361AA068C719656A2046FFF7BEFF00BFBB
:1076F000681C0028EAD100BF56480078564909782E
:10770000884209D154480078401CC0B252490870E0
:10771000022801D1002008704F48007880004F49AE
:107720000F50FFF79DFF00BFF8BD014649480078A4
:10773000494A127890421DD046480078401C454A7C
:10774000107010460078022801D1002010704148C6
:1077500000788000414A105808603D4A0868126865
:1077600080183B4A1060104600680002000A106052
:10777000012070470020086000BFFAE7FEB52648E8
:107780000068019036480078009074E00098C000CE
:10779000344909684418257869E01820684361680D
:1077A0000F18681CC5B2A078A84200D1002538681F
:1077B000022802D0032857D10EE0282178684843D8
:1077C000144909684618307E002804D07868FFF70D
:1077D000F4FE0020307648E00CE00F4909682822CA
:1077E00051430C4A12688818002101760A4A416AFE
:1077F000116000BF08480068401C0028EDD134E04B
:107800001CED00E000E100E00015014040130140E4
:10781000001001408820002094200020A820002093
:107820002E2E5C2E2E5C2E2E5C2E2E5C2E2E5C536D
:107830006F757263655C6170705F636F6D6D6F6EA5
:107840005C6170705F74696D65722E63000000008A
:1078500098200020A4200020A52000209C200020AB
:107860008C2000209020002000BF00BF00BF607867
:10787000A84292D100BF0098411EC9B200910028D1
:1078800084D1FE4801680198814201D00120FEBDEB
:107890000020FCE7F0B50346002426E0F74E3668EA
:1078A00028277E43F64F3F68F01986689E4203D929
:1078B0008668F61A86601DE086689B1B8668341908
:1078C000002686600676ED4E3568EC4F466A3E60CF
:1078D0004669002E08D00E193602360AC66046697F
:1078E000066116684662156000BFE4480068401CE7
:1078F0000028D3D100BFF0BDFEB50746DF480068C1
:107900000290E048007801906BE00198C000DE49E9
:10791000096845185DE0781C002807D03E462820FD
:107920007043D74909684418676A23E02978182307
:1079300059436A6850182978491C29702978AA780F
:10794000914201D100212970466828217143CC4A17
:1079500012688C180168012902D1217E002900D00B
:1079600037E08168E160C168216101696161416955
:10797000216200BFC549E0680968401A0002000A98
:10798000C349884208D2C149E068096800F09DFAFD
:1079900021694018A06011E0BC48E168006800F06F
:1079A00094FA009021690098814204D921690098D5
:1079B000081AA06001E00020A06000BF0020E06085
:1079C000206101202076801E60623046FFF78BFD2B
:1079D00000BF781C00289ED12878697888429AD107
:1079E00000BF0198411EC9B2019100288DD1A34862
:1079F00001680298814201D00120FEBD0020FCE711
:107A0000FEB505469D480068401C002835D09B48BF
:107A10000068282148439A4909684018866800F0A0
:107A200051FA0290994804682146029800F04DFAF4
:107A3000C01C0190681C002801D1FFF729FD0198A6
:107A4000B04201D2304600E0019804192402240A11
:107A500020469049086000BF00F034FA0090029977
:107A6000009800F032FAC71C2046029900F02DFA67
:107A7000874201D9FFF7EFFD01E0FFF71EFDFEBDD4
:107A8000FEB50020C0430190804804687B48076829
:107A90006846FFF74AFE0546FFF770FE0646002DD2
:107AA00005D001AA21460098FFF7F4FE01260198AF
:107AB000FFF722FF002800D00126002E02D0384612
:107AC000FFF79EFFFEBD4170704770B502460B4642
:107AD0005078411C9078884200D10021107888426B
:107AE00001D1002070BD1960507818267043556888
:107AF0002C182046F6E7FFB581B005460E4617461E
:107B0000E900614A126888186946FFF7DEFF0446FB
:107B1000002C02D1042005B0F0BD01202060666079
:107B200000F0D0F9A060E760049820610A986061D5
:107B3000E900554A126888180099FFF7C4FFFFF75B
:107B40008FFD0020E7E7F8B504460E46E1004E4AF7
:107B5000126888186946FFF7B8FF0546002D01D165
:107B60000420F8BD022028606E60E100464A1268D9
:107B700088180099FFF7A7FFFFF772FD0020F0E7D4
:107B800038B50446E100404A126888186946FFF794
:107B90009CFF0546002D01D1042038BD032028603C
:107BA000001F6860E100384A126888180099FFF7E2
:107BB0008AFFFFF755FD0020EFE710B5002036499A
:107BC00008600021344841608160C1600020324972
:107BD000403908604860FFF766FD10BD10B5FFF73B
:107BE0004FFF10BDFFB581B00E4617461C4620461C
:107BF0008107890F002901D1012100E0002100291E
:107C000002D1072005B0F0BD002C01D10720F9E713
:107C1000FFF753FC21490A9808602148067018486C
:107C2000046000250CE0002128206843144A1268F3
:107C3000115028206843124A1268801801766D1C82
:107C4000B542F0DB28207043041903200D49087069
:107C50000D480460183400250CE0E9000A4A126857
:107C600088180021017041708770446018217943A1
:107C70000C196D1C032DF0DB002013E09420002074
:107C8000882000208C2000209020002098200020B8
:107C9000FFFF7F004015014040110140A820002057
:107CA00084200020C0438B49086000208A49087066
:107CB0008A490870142000F0D3F803211420FFF73C
:107CC000A7FB142000F0BEF80198FFF7D8FB00F0E6
:107CD000F9F883490860002094E770B503460C4624
:107CE00080480068002801D1082070BD002A01D119
:107CF0000720FAE7002B01D10720F6E700211CE05E
:107D000028204843774D2D682858002814D1012594
:107D100028204843734E3668355028204843714D1B
:107D20002D6840194460282048436E4D2D68401945
:107D3000C26119600020D8E7491C6B480078814275
:107D4000DEDB0420D1E710B500F092F8012802D064
:107D5000032804D101E0002403E0012401E002240F
:107D600000BF00BF204610BDFEB504460D461646B6
:107D70005C480068002801D10820FEBD5A48007800
:107D8000844201D2052D01D20720F6E72820604366
:107D9000544909680858012801D00820EDE7282037
:107DA00060435049096840184068012801D12846BD
:107DB00000E000200746FFF7C6FF3B462A46214663
:107DC00000960190FFF797FED7E770B50446454847
:107DD0000068002801D1082070BD43480078844223
:107DE00001D30720F8E7282060433E490968085876
:107DF000012801D00820EFE7FFF7A5FF054621463F
:107E0000FFF7A1FEE8E710B536480068002801D169
:107E1000082010BDFFF797FF0446FFF7B1FEF8E713
:107E200010B5044600F04EF82060002010BD70B57B
:107E300005460E4614463146284600F046F82060B6
:107E4000002070BDC206D20E01219140274A116068
:107E50007047C206D20E01219140254A1160704739
:107E6000C206D20E01219140214A80321160704732
:107E700010B520484068C105C90D002920D00A4628
:107E8000103A104600280DDA1A4B1C330407240F51
:107E9000083CA408A4001B598407E40EE3401B0619
:107EA0009B0F0BE0114B032424021B198408A40030
:107EB0001B598407E40EE3401B069B0FD8B210BD8C
:107EC0000420FCE70C48406870470246501A000244
:107ED000000A704794200020A4200020A520002044
:107EE00098200020882000208420002000E100E06D
:107EF00000E200E000ED00E0001501400146488886
:107F0000B74A1288904206DB4888B54A52889042A8
:107F100001DC012070470020FCE738B50546B14878
:107F20000088B14988423BD0B0480078401CAF4936
:107F30000870AF48007B097888420FDBA849A94840
:107F4000008875DF0446002C07D0A9488069002806
:107F500003D0A74881692046884721E00020A34933
:107F60000870A348007C00280FD03B219D48008862
:107F700076DF0446002C07D09D488069002803D096
:107F80009B4881692046884700BF9948406900287E
:107F900006D000200090964841696846884700BF97
:107FA00038BD70B505461C2229469148FCF70CF9EE
:107FB000002090490870286800280BD008228848C3
:107FC000296801F019FA86487ADF0446002C08D0A7
:107FD000204670BD82487BDF0446002C01D020463D
:107FE000F7E70020C0437F49088000207F490870E0
:107FF000814A00218148FFF770FEEAE710B57F480B
:108000000068FFF7E2FE10BD38B57D48FFF776FF48
:10801000002829D17748007800280AD074484069A0
:10802000002820D0002000907148416968468847A8
:1080300019E06E480078002802D16D48456801E0DB
:108040006B488568002229466C480068FFF78CFE63
:108050000446002C07D066488069002803D0644895
:108060008169204688470AE061484069002806D0B7
:10807000012000905E4841696846884700BF0020A3
:108080005C49087038BD10B50446A0885549088081
:10809000082221460E315A4801F0AEF9002053491A
:1080A00008705348C089002801D1FFF7ADFF10BD0B
:1080B00070B505460020C0434A49088000204B495E
:1080C00008704E480068FFF780FE0446002C07D079
:1080D00047488069002803D0454881692046884781
:1080E00070BD70B50546AC1D20884149C9898842DC
:1080F00020D1208B02281DD100BF00BFA17EE27ECF
:10810000120211430846C107C90F002902D0FFF728
:108110007BFF0FE039480068FFF757FE0646002E48
:1081200007D033488069002803D031488169304640
:10813000884700BF70BD10B504460822A11D304815
:1081400001F05AF9FFF760FF10BD10B50446208812
:10815000102806D0112808D012280ED0502810D18F
:1081600007E02046FFF78FFF0CE02046FFF7A0FF57
:1081700008E02046FFF7B5FF04E02046FFF7DBFFED
:1081800000E000BF00BF10BD38B5044608222146FC
:10819000134801F031F912487ADF0546002D1CD151
:1081A0001748FFF7ABFE00280BD1012011490870DA
:1081B0000B490C48008875DF054601200B49087003
:1081C0000BE00B484069002806D0012000900848C9
:1081D00041696846884700BF0025284638BD000031
:1081E000AC200020B6200020FFFF0000B4200020BB
:1081F000A4270020C42000201B7F0100C0200020F5
:10820000B820002070B506460C4615462946204683
:10821000FCF79BF870BDF8B55A480078002800D1EB
:10822000F8BD59480068002801D1012000E0002075
:10823000054656480068002801D1012000E00020D2
:10824000064600BF002D14D168464EDF0446052CBB
:1082500001D101250CE0002C06D000BF4CA2692101
:108260002046FCF765F803E047490098096888470D
:1082700000BF002E1AD15448008800906946534828
:10828000006860DF0446052C01D101260DE0002CBA
:1082900006D000BF3EA280212046FCF749F804E04A
:1082A0004A48006839490968884700BF002D02D054
:1082B000002E00D000E0C5E700BF00BFB0E7FFB56B
:1082C00081B00C4616461F46002C02D1072005B08F
:1082D000F0BD20468107890F002901D1012100E06E
:1082E0000021002901D10720F1E738480460364811
:1082F0000680374807603749019810DF0546002D92
:1083000001D02846E3E701201E490870162023DF2C
:10831000DDE710B511DF0446002C01D0012000E09C
:10832000002018490870204610BD0146002901D1DF
:108330000E207047154801600020FAE70146002929
:1083400001D10E207047104801600020FAE770B597
:108350001F480068002811D01D4800688047044667
:1083600000BF2546002D07D000BF09A2FF213331F1
:108370002846FBF7DDFF00BF00BF01E0FFF74BFF22
:1083800070BD0000D2200020D8200020D420002082
:108390002E2E5C2E2E5C2E2E5C2E2E5C2E2E5C53F2
:1083A0006F757263655C73645F636F6D6D6F6E5C38
:1083B000736F66746465766963655F68616E646C2B
:1083C00065722E6300000000D0200020CC20002029
:1083D000C820002005820100F8B504460D469248E9
:1083E0000068002813D0EAB221788F4BA0681B6880
:1083F0009847064600BF3746002F06D000BF8BA225
:1084000028213846FBF794FF00BF00BF0CE0012D88
:1084100004D120780121A268904705E0002D03D106
:1084200020780021A2689047F8BDF8B50746694654
:108430008A48007800F0F3FA0646002E00D0F8BD16
:10844000002535E00C2068438549096844188548B3
:108450000068227801219140084000280FD0A068D0
:1084600000280CD06078012804D100212046FFF7B5
:10847000B3FF1BE001212046FFF7AEFF16E079486D
:108480004068227801219140084000280ED0A06861
:1084900000280BD06078012804D101212046FFF785
:1084A0009BFF03E000212046FFF796FF681CC5B242
:1084B0006D4800788542C5DB00BFC0E770B5044653
:1084C0000D466A480068FFF780FC0646002E00D083
:1084D00070BD6448446005602046284302466448F5
:1084E000016862480068FFF73FFC064600BFEFE7FF
:1084F000FFB583B006460C461746052F02D207206B
:1085000007B0F0BD564806605748047058480760E9
:10851000454906980860002516E00C21614388193A
:1085200002780092416801910199890005221207A1
:1085300007231B02D318009A9200995000BF0278BB
:10854000012191400D4300BF2046611ECCB200289E
:10855000E3D1484B2A462946404800F089F9029069
:108560000298002801D00298CAE7434A00213F48F8
:10857000FFF7B3FBC4E710B539480068002801D104
:10858000082010BD3548007800F0B7F9F9E710B5BC
:1085900033480068002801D1082010BD2F4800781A
:1085A00000F01CFA0446002C01D02046F5E72F48C5
:1085B0000068FFF70AFCF0E7F8B505460C460C200A
:1085C000684327490968471825480068002801D1F1
:1085D0000820F8BD69462148007800F020FA0646D8
:1085E000002E01D03046F4E7787800280BD10098AF
:1085F000E840C007C00F002802D00020207010E023
:10860000012020700DE0787801280AD10098E84018
:10861000C007C00F002802D00120207001E0002018
:1086200020700020D5E70000E82000202E2E5C2ED0
:108630002E5C2E2E5C2E2E5C2E2E5C536F7572637C
:10864000655C6170705F636F6D6D6F6E5C617070A3
:108650005F627574746F6E2E63000000EC20002062
:10866000DC200020F4200020E0200020F02000206A
:10867000E4200020BD8401002B840100F0B50246F7
:108680000C46002037E001238340194623460B4067
:10869000002B2FD0D5680D40002D05D101235B04A0
:1086A000D5680D43D56004E003231B04D5688D43D2
:1086B000D56005252D0707263602AD198600AD5970
:1086C00003263604B5430526360707273F02F61969
:1086D0008700F55105252D0707263602AD198600BE
:1086E000AD591D430526360707273F02F6198700B7
:1086F000F55100BF401C2028C5D3F0BDF0B585B0B2
:10870000EF4805690020EF49C86300263FE01420C8
:108710007043ED49096844180120B040EB490968ED
:108720000840002831D0E068C04368402168084014
:10873000074639462046FFF7A1FFE1480069684037
:108740000390039800280ED003980543E068C043C7
:10875000684021680840009020460099FFF78EFF8E
:108760000098074300BFA068A843384001906068A4
:10877000284038400290019902980843002803D00D
:10878000226901990298904700BF701CC6B2D04878
:1087900000788642BBDB05B0F0BD10B50146002075
:1087A00029E014224A43C84B1B689A58012383408E
:1087B0001A40002A1ED00522120707231B02D218D6
:1087C0008300D25803231B049A4305231B07072465
:1087D00024021B1984001A510522120707231B02C9
:1087E000D2188300D25805231B07072424021B1923
:1087F00084001A51401C2028D3D310BD70B5054603
:108800000C46002C01D1072070BD20468107890F3E
:10881000002901D1012100E00021002901D1072018
:10882000F2E7A9480460AB4805700020A849087029
:10883000A6490860A7480078142250430146A24880
:10884000006800F038FE0020C043A349886006207D
:1088500001218140A14A116000BF012100F0F9F817
:108860000620012181409E4A116000BF0020CBE715
:10887000F8B504460D4616461F4693480068002882
:1088800001D10820F8BD002F01D10720FAE7904858
:10889000007890490978884201DB0420F2E72846F5
:1088A00030438B49097814225143874A126850504B
:1088B0008748007814214843834909684018456077
:1088C00083480078142148437F490968401886602E
:1088D0007F480078142148437B49096840180761A4
:1088E0007B48007820707A480078401C78490870EE
:1088F0002078FFF752FF0020C4E7F0B50246724827
:108900000068002801D10820F0BD7148007882423B
:1089100001DB0720F8E700206A4BD8636848046948
:108920006A480068002802D158066B4B5860012045
:108930009040664B1B681843644B1860002314205A
:108940005043614D2D684019C360002142E001236E
:108950008B401846142353435B4D2D68EB5803405E
:10896000002B36D025460540002D02D003231B04E2
:108970000EE001235B0414255543534E3668AD19B0
:10898000ED680543142656434F4F3F68F619F560CE
:1089900005252D0707263602AD198E00AD59032691
:1089A0003604B5430526360707273F02F6198F0020
:1089B000F55105252D0707263602AD198E00AD5954
:1089C0001D430526360707273F02F6198F00F5518C
:1089D00000BF491C2029BAD3002095E710B50446F2
:1089E00039480068002801D1082010BD38480078B7
:1089F000844201DB0720F8E72046FFF7CEFE012086
:108A0000A04032490968814330480160006800286D
:108A100003D10120C007304988600020E5E710B588
:108A2000024629480068002801D1082010BD2848C6
:108A30000078824201DB0720F8E714205043224CE3
:108A4000246803191E4800691C6820400860002043
:108A5000ECE710B5002819DA224A03071B0F083B80
:108A60009B089B00D2588307DC0EFF23A3409A4348
:108A70008B071B0E8407E40EA3401A43194B04070F
:108A8000240F083CA408A4001A5118E0144A032338
:108A90001B02D21883089B00D2588307DC0EFF23E9
:108AA000A3409A438B071B0E8407E40EA3401A438E
:108AB0000B4B032424021B198408A4001A5110BD77
:108AC000000500504061004004210020FC200020EF
:108AD00001210020002100200063004080E200E02E
:108AE00000E100E01CED00E004460D4616467F2242
:108AF0003146094800F0E2FC002107486030C177A8
:108B000006490D800648046008460088044800684D
:108B100072B600BFFEE70000C02700200821002039
:108B20000C21002038B50546012402216846017059
:108B300041700123022269467248007800F0F6FB7A
:108B40000446204638BDF0B587B004460023012214
:108B50006D49204600F0EAFB002807D0012121439F
:108B6000084601231A4604A900F0E0FB0023012275
:108B70006649204600F0DAFB002807D00121214396
:108B8000084601231A4605A900F0D0FB6846007C80
:108B9000F021084005116846007C0007060E684673
:108BA000007D0007000F06430121A94071430846DC
:108BB00000F0EBFD564A574B0191009000F0F0FD9C
:108BC0000391029000F060FD0746384607B0F0BD03
:108BD00070B5044600F091FA052000F08EF81120DF
:108BE00000F086F89620FFF79DFFFF20913000F0FF
:108BF00097F89620FFF7A7FF054625609420FFF71A
:108C000091FF9420FFF79FFF05466560112000F05B
:108C100074F8052000F06CF8FF20913000F080F827
:108C20009620FFF790FF0546A5609420FFF77AFF96
:108C30009420FFF788FF0546E56070BDF0B587B06A
:108C400004460F46206800F0DFFE0191009001F01D
:108C500061FE0022304B0391029000F0A1FD054619
:108C600001F0D4FE0591049000F04CFD387060686E
:108C700000F0CAFE0191009001F04CFE0546002272
:108C8000254B00F08DFD0391029001F0BFFE059190
:108C9000049000F037FD7870A06800F0B5FE05463E
:108CA00001F038FE00221C4B0191009000F078FD8D
:108CB0000391029001F0AAFE0591049000F022FDBC
:108CC000B870E06800F0A0FE054601F023FE002227
:108CD000114B0191009000F063FD0391029001F0AF
:108CE00095FE0591049000F00DFDF87007B0F0BD01
:108CF00001218140094A9160704701218140074A62
:108D0000D160704710210020FDAB0100FEAB0100D7
:108D10000AD7A3703D0AA73F000049400005005054
:108D200001B505E00098401E00900348FBF72CFABF
:108D300000980028F6D108BDE703000010B500F048
:108D4000DCF9092000F089F90120FFF7E9FF10BDE7
:108D5000FFB5A5B00D4617461E46082001218140EB
:108D6000C04AD16000BFB01CC0B224902804000EDD
:108D70000290694602980873E8B20190019848731E
:108D8000002405E0395D03AAA01C1154601C84B2C4
:108D9000B442F7DB012303A9249A259800F0C6FA10
:108DA000002808D0082000F058F90A20FFF7B8FF83
:108DB000012029B0F0BD082000F04FF90020F8E7AD
:108DC000FFB585B00D4617462C460898281880B286
:108DD00004902846E917490E0918C911C905090C5C
:108DE00003910398803086B2012002900EE0301B80
:108DF000C3B2601BC21921460598FFF7A9FF029074
:108E00000396039E3046803086B2039C0498B0429D
:108E100002DD02980028EAD10298002801D109B0A9
:108E2000F0BD0498001B80B201900198C3B2601B92
:108E3000C21921460598FFF78BFFF0E7F7B588B018
:108E4000054601208004854202D900200BB0F0BD08
:108E50000A98281801218904884201D90020F5E7E1
:108E60002C460A9828180790280C070401200004B3
:108E70003E18012006901AE02002000E02907A4966
:108E80000298085CA02108430190301B83B2611B4B
:108E900009980A18A0B2014600900198FFF790FFC8
:108EA00006903746012000043E183C4600BF079854
:108EB000B04202D906980028DED10698002800D1D9
:108EC000C4E72002000E059067490598085CA021C0
:108ED000084304900798001B80B20390611B099817
:108EE0000A18A0B202900146039B0498FFF768FF9E
:108EF000ACE710B5A0B08021684600F0DCFA002491
:108F000005E0802269462046FFF798FF8034012063
:108F100080048442F5D3012020B010BD7CB5054605
:108F20000C46082000F099F8FF2101912004010E61
:108F3000684601704470002302226946284600F00A
:108F4000F5F9002807D001212943084601231A46D4
:108F500001A900F0EBF9684600797CBDFFB581B04E
:108F600006460C461746082000F077F82004010E4C
:108F7000684601704470002302226946304600F0C2
:108F8000D5F900280CD00499CAB201213143084612
:108F90000123394600F0CAF9002802D0012500E07B
:108FA0000025284605B0F0BDF7B588B0054601207C
:108FB0008004854202D900200BB0F0BD0A98281821
:108FC00001218904884201D90020F5E72C460A983E
:108FD00028180790280C0704012000043E180120DF
:108FE00006901AE0A001000E03901F490398085C48
:108FF000A02108430290301B83B2611B09980A1814
:10900000A0B2014601900298FFF7A8FF06903746EC
:10901000012000043E183C4600BF0798B04202D928
:1090200006980028DED10698002800D1C4E7200267
:10903000000E05900C490598085CA0210843049097
:109040000798001B83B2611B09980A18A0B2014659
:1090500003900498FFF782FFAEE701218140014AA7
:1090600091607047000500501121002070B500BFCD
:1090700001208003CD49886000BF00BF4010886098
:1090800000BF0420FBF790F8C84800694004C00FF7
:10909000002807D0C54800698004C00F002801D00F
:1090A000012428E0C14800698004C00F002821D0B5
:1090B0000024122519E000BF01204003BB49C8600D
:1090C00000BF0420FBF770F800BF01204003B74940
:1090D000886000BF0420FBF767F8B44800694004CB
:1090E000C00F002801D0012403E028466D1E00288F
:1090F000E1D100E00024204670BD10B500BFAC48AF
:1091000005210907072212028918886300BF00BFE2
:10911000052109078918486300BF00BF01204003EB
:10912000A249886000BF00BF886100BF00BF400047
:10913000886000BF00BF886100BFFFF797FF10BDC8
:1091400010B500BF012040039849886000BF04208B
:10915000FBF72AF800BF954800698004C00F00287B
:10916000F9D0012010BD10B500BF012080038F4948
:10917000C86000BF0420FBF717F8FFF7E1FF0028E5
:1091800000D110BD00BF012080038849886000BF66
:109190000420FBF709F80120F3E770B50646012427
:1091A00000BFA0038149886100BF80251FE000BF88
:1091B000012040037D49C86000BF0420FAF7F4FF96
:1091C00030462840002805D000BF012080037749A1
:1091D000886005E000BF012080037449C86000BFBB
:1091E000FFF7AEFF002801D1002402E06D08002D3A
:1091F000DDD100BF00BF012040036C49C86000BF43
:109200000420FAF7D1FF00BF012080036749C8613D
:1092100000BF0420FAF7C8FFFFF792FF044063483D
:109220000069800B01214840044000BF48035F49AA
:10923000C86000BF0420FAF7B7FF00BF0120800319
:109240005A49886100BF204670BDF8B505460E46F4
:1092500000270120009000BF80035449C86100BF6F
:10926000802418E0FFF76CFF002801D1009014E083
:109270004E4800694004C00F002802D03846204301
:10928000074600BF012040034849C86000BF0420D2
:10929000FAF78AFF6408002CE4D100BF00BF012068
:1092A00080034249886100BF2F70002E02D000BFAA
:1092B000C86005E000BF012080033C49886000BF12
:1092C0000420FAF771FFFFF73BFF002800D1009060
:1092D00000BF012040033549C86000BF0420FAF7F1
:1092E00063FF0098F8BD10B500BF012080032F492F
:1092F000886000BF0420FAF757FFFFF721FF00281E
:1093000000D110BD00BF012080032849C86000BF04
:109310000420FAF749FF00BF012040032349C86039
:1093200000BF0420FAF740FF0120EAE7FFB581B053
:1093300007460D4616460124FFF7D5FF0440384680
:10934000FFF72BFF0440F807C00F002816D00DE0F0
:10935000002E05D100212846FFF777FF044004E0E6
:1093600001212846FFF771FF04406D1C3046711E35
:10937000CEB200280FD0002CEAD10CE004E028780F
:10938000FFF70BFF04406D1C3046711ECEB2002863
:1093900001D0002CF3D10498002801D1002C02D177
:1093A000FFF7E1FE0440204605B0F0BD0005005087
:1093B0000C06000030B5441C03E00178401C002975
:1093C0000DD08107F9D10B4BDD0104C8D11A9143AF
:1093D0002940FAD0001B0A0603D0C01E30BD001B76
:1093E00030BD0A0401D0801E30BD0902FCD0401EF1
:1093F00030BD000001010101F8B5042A2CD3830718
:1094000012D00B78491C0370401C521E83070BD0EE
:109410000B78491C0370401C521E830704D00B7844
:10942000491C0370401C521E8B079B0F05D0C91AA4
:10943000DF002023DE1B08C90AE0FAF7C5FEF8BDED
:109440001D4608C9FD401C46B4402C4310C0121FE5
:10945000042AF5D2F308C91A521EF0D40B78491C1D
:109460000370401C521EEAD40B78491C0370401C48
:10947000012AE4D409780170F8BD01E004C0091F95
:109480000429FBD28B0701D50280801CC90700D0BC
:109490000270704700290BD0C30702D00270401C35
:1094A000491E022904D3830702D50280801C891E2D
:1094B000E3E70022EEE70022DFE70000F8B5074609
:1094C0000B4639461943890713D1164CE601042A85
:1094D0000FD302CB0D1B8D43354202D102C0121FA8
:1094E000F5E7CBB20370401C521E002B13D0090AC3
:1094F000F7E7002A14D01978521E5B1C0170401C3B
:10950000002908D0002A0BD01978521E5B1C01706C
:10951000401C0029EDD1002A02D01146FFF7C9FFF7
:109520003846F8BD01010101002203098B422CD30A
:10953000030A8B4211D300239C464EE003460B43A3
:109540003CD4002243088B4231D303098B421CD305
:10955000030A8B4201D394463FE0C3098B4201D3F7
:10956000CB01C01A524183098B4201D38B01C01A2F
:10957000524143098B4201D34B01C01A52410309A6
:109580008B4201D30B01C01A5241C3088B4201D355
:10959000CB00C01A524183088B4201D38B00C01A02
:1095A000524143088B4201D34B00C01A5241411A29
:1095B00000D201465241104670475DE0CA0F00D00C
:1095C0004942031000D34042534000229C46030905
:1095D0008B422DD3030A8B4212D3FC22890112BA8B
:1095E000030A8B420CD3890192118B4208D3890163
:1095F00092118B4204D389013AD0921100E089097B
:10960000C3098B4201D3CB01C01A524183098B425B
:1096100001D38B01C01A524143098B4201D34B0144
:10962000C01A524103098B4201D30B01C01A5241A7
:10963000C3088B4201D3CB00C01A524183088B422E
:1096400001D38B00C01A5241D9D243088B4201D3B7
:109650004B00C01A5241411A00D2014663465241A2
:109660005B10104601D34042002B00D549427047A1
:1096700063465B1000D3404201B50020C046C0469F
:1096800002BD7047704770470246C80FC00781434C
:109690004B0030B54B405B009B0D20D01923DB06FF
:1096A000C91801231B05994220DB0324A4070425C4
:1096B0001346AB400BD3002B04D1EB0613409B00A9
:1096C000E34204D401246407002312195941FF2303
:1096D0001B0599420BD2C9000143500F09E0CB0290
:1096E00004D501430803024305D0054830BDFF21DE
:1096F000C905084330BD084607210905884330BD28
:109700000000C07FCB02420D10B51A430B1504D0E8
:109710000124E4072243002B06DB0A4CE31A05D49C
:109720001046D840FF2B00DD002010BD4A00002865
:1097300000D00120101801225205D042F4D8C817D9
:10974000C04310BD1E0400001F22030C02D10F22D3
:10975000000402D0030E03D004E00020014670474D
:109760000002083A030F01D10001121F830F01D13B
:109770008000921E002801DB4000521E1205511885
:109780004205C012411810467047C10FC90700D0EA
:109790004042012292071143D6E701218907D3E70E
:1097A000F0B5934C0D092646AC46AE430D465D40E0
:1097B00087B0002E7ED01E092746B743FAD06746F1
:1097C0002740ED0F3D43264075D024012142FBD0B8
:1097D0007419FF25AD04641B0494CC02D902012343
:1097E0001B05C90A1943E40A1C430F01110F240188
:1097F000030F1C43050116010F43A20B2D09900313
:109800008443A90B88038543BB0B98038743360920
:10981000BC46B00B8703BE430F46474303972F4612
:1098200077430296BE46029F4E19C71906967E439D
:109830000597039FF71B7646BE1B77463F010097AF
:109840000196039FB60BF619B646019E009FB6041B
:10985000BF1902D37646761CB64676467600002FB0
:1098600001D001273E4367467D43AE46029F254611
:109870007D4300956D00AE1975466D00AF196546C4
:109880005D19069E03956E437546751BAE46151908
:10989000059E02956E43009D5943761B75466D1AD1
:1098A00050438646301A05900195F80606D07D098A
:1098B000012001E07DE079E0054300E07D090E0A2A
:1098C000090600204D19464100967646310A3706B2
:1098D000009E7F1971418E4601998D0D8E02714651
:1098E000F6194D41AE46059DA90DAF027546BE194C
:1098F00069415A4363465C43039D029B6B439B1A39
:109900001D1BAB0EAD016D184341110B1205521911
:109910005941230A2406A5195341934200D2491CF8
:1099200001225202914203D315220226F64302E09D
:1099300014220326F6432024A41AA1401F46A74060
:10994000BC461F46D7400F432946D14062461143CB
:10995000049A1214B2181305049EFB18F6077340FC
:10996000A54009D00124A54006D30024491C634129
:10997000002D01D1490849001E4CA24203D20846DD
:10998000194607B0F0BD012204999206914207DB07
:1099900005214907184A59181143D2125140F0E7DE
:1099A000032149075918C90FC907EAE70020E90749
:1099B000E7E706180C464C4110487642A04114D304
:1099C00094181A465A410D48644290410DD3012023
:1099D00049004005814208D35900814205D3E90F6F
:1099E000074AC90700201143CBE700200549C8E713
:1099F0000000FF07FE070000FFFFFF7F0000E0FF01
:109A00000000F07F0000F87F0121C9050123411803
:109A100042001B06D3185B0E0AD0C1100722D206E3
:109A2000891840075242D14201D552008918704727
:109A3000090208D50146002A03D0C10FC90700203A
:109A4000704710467047420202D00020024970471A
:109A5000072109050143F4E70000F87F10B500F085
:109A60007DFC006810BD10B5044600F077FC046072
:109A700010BD0000F0B50C46871A9C410D46861AB1
:109A80009D4103D2C01BA141D21963410D0D1F0D91
:109A9000C74EEC1BAE435CD07F057F0D0026002F28
:109AA00051D02D05AC46A943DD020123ED0A1B056B
:109AB0001D4320231B1B24D41746E740381871414F
:109AC0002F46E740CC199D402818314661410C0DC6
:109AD00027D161449A4013D50023401C59415200BC
